{
	"contracts/basic/IntegerDataType.sol": {
		"IntegerDataType": {
			"abi": [
				{
					"inputs": [],
					"name": "a",
					"outputs": [
						{
							"internalType": "uint256",
							"name": "",
							"type": "uint256"
						}
					],
					"stateMutability": "view",
					"type": "function"
				},
				{
					"inputs": [],
					"name": "arithmetic",
					"outputs": [
						{
							"internalType": "uint256",
							"name": "sum",
							"type": "uint256"
						},
						{
							"internalType": "uint256",
							"name": "difference",
							"type": "uint256"
						},
						{
							"internalType": "uint256",
							"name": "product",
							"type": "uint256"
						},
						{
							"internalType": "uint256",
							"name": "quoient",
							"type": "uint256"
						}
					],
					"stateMutability": "view",
					"type": "function"
				},
				{
					"inputs": [],
					"name": "b",
					"outputs": [
						{
							"internalType": "uint256",
							"name": "",
							"type": "uint256"
						}
					],
					"stateMutability": "view",
					"type": "function"
				},
				{
					"inputs": [],
					"name": "c",
					"outputs": [
						{
							"internalType": "int256",
							"name": "",
							"type": "int256"
						}
					],
					"stateMutability": "view",
					"type": "function"
				}
			],
			"devdoc": {
				"kind": "dev",
				"methods": {},
				"version": 1
			},
			"evm": {
				"assembly": "    /* \"contracts/basic/IntegerDataType.sol\":60:381  contract IntegerDataType{... */\n  mstore(0x40, 0x80)\n    /* \"contracts/basic/IntegerDataType.sol\":109:111  10 */\n  0x0a\n    /* \"contracts/basic/IntegerDataType.sol\":93:111  uint public a = 10 */\n  0x00\n  sstore\n    /* \"contracts/basic/IntegerDataType.sol\":134:135  1 */\n  0x01\n    /* \"contracts/basic/IntegerDataType.sol\":118:135  uint public b = 1 */\n  dup1\n  sstore\n    /* \"contracts/basic/IntegerDataType.sol\":157:159  -1 */\n  0xffffffffffffffffffffffffffffffffffffffffffffffffffffffffffffffff\n    /* \"contracts/basic/IntegerDataType.sol\":142:159  int public c = -1 */\n  0x02\n  sstore\n    /* \"contracts/basic/IntegerDataType.sol\":60:381  contract IntegerDataType{... */\n  callvalue\n  dup1\n  iszero\n  tag_1\n  jumpi\n  revert(0x00, 0x00)\ntag_1:\n  pop\n  dataSize(sub_0)\n  dup1\n  dataOffset(sub_0)\n  0x00\n  codecopy\n  0x00\n  return\nstop\n\nsub_0: assembly {\n        /* \"contracts/basic/IntegerDataType.sol\":60:381  contract IntegerDataType{... */\n      mstore(0x40, 0x80)\n      callvalue\n      dup1\n      iszero\n      tag_1\n      jumpi\n      revert(0x00, 0x00)\n    tag_1:\n      pop\n      jumpi(tag_2, lt(calldatasize, 0x04))\n      shr(0xe0, calldataload(0x00))\n      dup1\n      0x0dbe671f\n      eq\n      tag_3\n      jumpi\n      dup1\n      0x4df7e3d0\n      eq\n      tag_4\n      jumpi\n      dup1\n      0x980a67fd\n      eq\n      tag_5\n      jumpi\n      dup1\n      0xc3da42b8\n      eq\n      tag_6\n      jumpi\n    tag_2:\n      revert(0x00, 0x00)\n        /* \"contracts/basic/IntegerDataType.sol\":93:111  uint public a = 10 */\n    tag_3:\n      tag_7\n      tag_8\n      jump\t// in\n    tag_7:\n      mload(0x40)\n      tag_9\n      swap2\n      swap1\n      tag_10\n      jump\t// in\n    tag_9:\n      mload(0x40)\n      dup1\n      swap2\n      sub\n      swap1\n      return\n        /* \"contracts/basic/IntegerDataType.sol\":118:135  uint public b = 1 */\n    tag_4:\n      tag_11\n      tag_12\n      jump\t// in\n    tag_11:\n      mload(0x40)\n      tag_13\n      swap2\n      swap1\n      tag_10\n      jump\t// in\n    tag_13:\n      mload(0x40)\n      dup1\n      swap2\n      sub\n      swap1\n      return\n        /* \"contracts/basic/IntegerDataType.sol\":168:376  function arithmetic() public view returns (uint sum, uint difference, uint product, uint quoient){... */\n    tag_5:\n      tag_14\n      tag_15\n      jump\t// in\n    tag_14:\n      mload(0x40)\n      tag_16\n      swap5\n      swap4\n      swap3\n      swap2\n      swap1\n      tag_17\n      jump\t// in\n    tag_16:\n      mload(0x40)\n      dup1\n      swap2\n      sub\n      swap1\n      return\n        /* \"contracts/basic/IntegerDataType.sol\":142:159  int public c = -1 */\n    tag_6:\n      tag_18\n      tag_19\n      jump\t// in\n    tag_18:\n      mload(0x40)\n      tag_20\n      swap2\n      swap1\n      tag_21\n      jump\t// in\n    tag_20:\n      mload(0x40)\n      dup1\n      swap2\n      sub\n      swap1\n      return\n        /* \"contracts/basic/IntegerDataType.sol\":93:111  uint public a = 10 */\n    tag_8:\n      sload(0x00)\n      dup2\n      jump\t// out\n        /* \"contracts/basic/IntegerDataType.sol\":118:135  uint public b = 1 */\n    tag_12:\n      sload(0x01)\n      dup2\n      jump\t// out\n        /* \"contracts/basic/IntegerDataType.sol\":168:376  function arithmetic() public view returns (uint sum, uint difference, uint product, uint quoient){... */\n    tag_15:\n        /* \"contracts/basic/IntegerDataType.sol\":211:219  uint sum */\n      0x00\n        /* \"contracts/basic/IntegerDataType.sol\":221:236  uint difference */\n      0x00\n        /* \"contracts/basic/IntegerDataType.sol\":238:250  uint product */\n      0x00\n        /* \"contracts/basic/IntegerDataType.sol\":252:264  uint quoient */\n      0x00\n        /* \"contracts/basic/IntegerDataType.sol\":286:287  b */\n      sload(0x01)\n        /* \"contracts/basic/IntegerDataType.sol\":282:283  a */\n      sload(0x00)\n        /* \"contracts/basic/IntegerDataType.sol\":282:287  a + b */\n      tag_23\n      swap2\n      swap1\n      tag_24\n      jump\t// in\n    tag_23:\n        /* \"contracts/basic/IntegerDataType.sol\":276:287  sum = a + b */\n      swap4\n      pop\n        /* \"contracts/basic/IntegerDataType.sol\":315:316  b */\n      sload(0x01)\n        /* \"contracts/basic/IntegerDataType.sol\":311:312  a */\n      sload(0x00)\n        /* \"contracts/basic/IntegerDataType.sol\":311:316  a - b */\n      tag_25\n      swap2\n      swap1\n      tag_26\n      jump\t// in\n    tag_25:\n        /* \"contracts/basic/IntegerDataType.sol\":298:316  difference = a - b */\n      swap3\n      pop\n        /* \"contracts/basic/IntegerDataType.sol\":341:342  b */\n      sload(0x01)\n        /* \"contracts/basic/IntegerDataType.sol\":337:338  a */\n      sload(0x00)\n        /* \"contracts/basic/IntegerDataType.sol\":337:342  a * b */\n      tag_27\n      swap2\n      swap1\n      tag_28\n      jump\t// in\n    tag_27:\n        /* \"contracts/basic/IntegerDataType.sol\":327:342  product = a * b */\n      swap2\n      pop\n        /* \"contracts/basic/IntegerDataType.sol\":367:368  b */\n      sload(0x01)\n        /* \"contracts/basic/IntegerDataType.sol\":363:364  a */\n      sload(0x00)\n        /* \"contracts/basic/IntegerDataType.sol\":363:368  a / b */\n      tag_29\n      swap2\n      swap1\n      tag_30\n      jump\t// in\n    tag_29:\n        /* \"contracts/basic/IntegerDataType.sol\":353:368  quoient = a / b */\n      swap1\n      pop\n        /* \"contracts/basic/IntegerDataType.sol\":168:376  function arithmetic() public view returns (uint sum, uint difference, uint product, uint quoient){... */\n      swap1\n      swap2\n      swap3\n      swap4\n      jump\t// out\n        /* \"contracts/basic/IntegerDataType.sol\":142:159  int public c = -1 */\n    tag_19:\n      sload(0x02)\n      dup2\n      jump\t// out\n        /* \"#utility.yul\":7:84   */\n    tag_31:\n        /* \"#utility.yul\":44:51   */\n      0x00\n        /* \"#utility.yul\":73:78   */\n      dup2\n        /* \"#utility.yul\":62:78   */\n      swap1\n      pop\n        /* \"#utility.yul\":7:84   */\n      swap2\n      swap1\n      pop\n      jump\t// out\n        /* \"#utility.yul\":90:208   */\n    tag_32:\n        /* \"#utility.yul\":177:201   */\n      tag_40\n        /* \"#utility.yul\":195:200   */\n      dup2\n        /* \"#utility.yul\":177:201   */\n      tag_31\n      jump\t// in\n    tag_40:\n        /* \"#utility.yul\":172:175   */\n      dup3\n        /* \"#utility.yul\":165:202   */\n      mstore\n        /* \"#utility.yul\":90:208   */\n      pop\n      pop\n      jump\t// out\n        /* \"#utility.yul\":214:436   */\n    tag_10:\n        /* \"#utility.yul\":307:311   */\n      0x00\n        /* \"#utility.yul\":345:347   */\n      0x20\n        /* \"#utility.yul\":334:343   */\n      dup3\n        /* \"#utility.yul\":330:348   */\n      add\n        /* \"#utility.yul\":322:348   */\n      swap1\n      pop\n        /* \"#utility.yul\":358:429   */\n      tag_42\n        /* \"#utility.yul\":426:427   */\n      0x00\n        /* \"#utility.yul\":415:424   */\n      dup4\n        /* \"#utility.yul\":411:428   */\n      add\n        /* \"#utility.yul\":402:408   */\n      dup5\n        /* \"#utility.yul\":358:429   */\n      tag_32\n      jump\t// in\n    tag_42:\n        /* \"#utility.yul\":214:436   */\n      swap3\n      swap2\n      pop\n      pop\n      jump\t// out\n        /* \"#utility.yul\":442:995   */\n    tag_17:\n        /* \"#utility.yul\":619:623   */\n      0x00\n        /* \"#utility.yul\":657:660   */\n      0x80\n        /* \"#utility.yul\":646:655   */\n      dup3\n        /* \"#utility.yul\":642:661   */\n      add\n        /* \"#utility.yul\":634:661   */\n      swap1\n      pop\n        /* \"#utility.yul\":671:742   */\n      tag_44\n        /* \"#utility.yul\":739:740   */\n      0x00\n        /* \"#utility.yul\":728:737   */\n      dup4\n        /* \"#utility.yul\":724:741   */\n      add\n        /* \"#utility.yul\":715:721   */\n      dup8\n        /* \"#utility.yul\":671:742   */\n      tag_32\n      jump\t// in\n    tag_44:\n        /* \"#utility.yul\":752:824   */\n      tag_45\n        /* \"#utility.yul\":820:822   */\n      0x20\n        /* \"#utility.yul\":809:818   */\n      dup4\n        /* \"#utility.yul\":805:823   */\n      add\n        /* \"#utility.yul\":796:802   */\n      dup7\n        /* \"#utility.yul\":752:824   */\n      tag_32\n      jump\t// in\n    tag_45:\n        /* \"#utility.yul\":834:906   */\n      tag_46\n        /* \"#utility.yul\":902:904   */\n      0x40\n        /* \"#utility.yul\":891:900   */\n      dup4\n        /* \"#utility.yul\":887:905   */\n      add\n        /* \"#utility.yul\":878:884   */\n      dup6\n        /* \"#utility.yul\":834:906   */\n      tag_32\n      jump\t// in\n    tag_46:\n        /* \"#utility.yul\":916:988   */\n      tag_47\n        /* \"#utility.yul\":984:986   */\n      0x60\n        /* \"#utility.yul\":973:982   */\n      dup4\n        /* \"#utility.yul\":969:987   */\n      add\n        /* \"#utility.yul\":960:966   */\n      dup5\n        /* \"#utility.yul\":916:988   */\n      tag_32\n      jump\t// in\n    tag_47:\n        /* \"#utility.yul\":442:995   */\n      swap6\n      swap5\n      pop\n      pop\n      pop\n      pop\n      pop\n      jump\t// out\n        /* \"#utility.yul\":1001:1077   */\n    tag_33:\n        /* \"#utility.yul\":1037:1044   */\n      0x00\n        /* \"#utility.yul\":1066:1071   */\n      dup2\n        /* \"#utility.yul\":1055:1071   */\n      swap1\n      pop\n        /* \"#utility.yul\":1001:1077   */\n      swap2\n      swap1\n      pop\n      jump\t// out\n        /* \"#utility.yul\":1083:1198   */\n    tag_34:\n        /* \"#utility.yul\":1168:1191   */\n      tag_50\n        /* \"#utility.yul\":1185:1190   */\n      dup2\n        /* \"#utility.yul\":1168:1191   */\n      tag_33\n      jump\t// in\n    tag_50:\n        /* \"#utility.yul\":1163:1166   */\n      dup3\n        /* \"#utility.yul\":1156:1192   */\n      mstore\n        /* \"#utility.yul\":1083:1198   */\n      pop\n      pop\n      jump\t// out\n        /* \"#utility.yul\":1204:1422   */\n    tag_21:\n        /* \"#utility.yul\":1295:1299   */\n      0x00\n        /* \"#utility.yul\":1333:1335   */\n      0x20\n        /* \"#utility.yul\":1322:1331   */\n      dup3\n        /* \"#utility.yul\":1318:1336   */\n      add\n        /* \"#utility.yul\":1310:1336   */\n      swap1\n      pop\n        /* \"#utility.yul\":1346:1415   */\n      tag_52\n        /* \"#utility.yul\":1412:1413   */\n      0x00\n        /* \"#utility.yul\":1401:1410   */\n      dup4\n        /* \"#utility.yul\":1397:1414   */\n      add\n        /* \"#utility.yul\":1388:1394   */\n      dup5\n        /* \"#utility.yul\":1346:1415   */\n      tag_34\n      jump\t// in\n    tag_52:\n        /* \"#utility.yul\":1204:1422   */\n      swap3\n      swap2\n      pop\n      pop\n      jump\t// out\n        /* \"#utility.yul\":1428:1608   */\n    tag_35:\n        /* \"#utility.yul\":1476:1553   */\n      0x4e487b7100000000000000000000000000000000000000000000000000000000\n        /* \"#utility.yul\":1473:1474   */\n      0x00\n        /* \"#utility.yul\":1466:1554   */\n      mstore\n        /* \"#utility.yul\":1573:1577   */\n      0x11\n        /* \"#utility.yul\":1570:1571   */\n      0x04\n        /* \"#utility.yul\":1563:1578   */\n      mstore\n        /* \"#utility.yul\":1597:1601   */\n      0x24\n        /* \"#utility.yul\":1594:1595   */\n      0x00\n        /* \"#utility.yul\":1587:1602   */\n      revert\n        /* \"#utility.yul\":1614:1805   */\n    tag_24:\n        /* \"#utility.yul\":1654:1657   */\n      0x00\n        /* \"#utility.yul\":1673:1693   */\n      tag_55\n        /* \"#utility.yul\":1691:1692   */\n      dup3\n        /* \"#utility.yul\":1673:1693   */\n      tag_31\n      jump\t// in\n    tag_55:\n        /* \"#utility.yul\":1668:1693   */\n      swap2\n      pop\n        /* \"#utility.yul\":1707:1727   */\n      tag_56\n        /* \"#utility.yul\":1725:1726   */\n      dup4\n        /* \"#utility.yul\":1707:1727   */\n      tag_31\n      jump\t// in\n    tag_56:\n        /* \"#utility.yul\":1702:1727   */\n      swap3\n      pop\n        /* \"#utility.yul\":1750:1751   */\n      dup3\n        /* \"#utility.yul\":1747:1748   */\n      dup3\n        /* \"#utility.yul\":1743:1752   */\n      add\n        /* \"#utility.yul\":1736:1752   */\n      swap1\n      pop\n        /* \"#utility.yul\":1771:1774   */\n      dup1\n        /* \"#utility.yul\":1768:1769   */\n      dup3\n        /* \"#utility.yul\":1765:1775   */\n      gt\n        /* \"#utility.yul\":1762:1798   */\n      iszero\n      tag_57\n      jumpi\n        /* \"#utility.yul\":1778:1796   */\n      tag_58\n      tag_35\n      jump\t// in\n    tag_58:\n        /* \"#utility.yul\":1762:1798   */\n    tag_57:\n        /* \"#utility.yul\":1614:1805   */\n      swap3\n      swap2\n      pop\n      pop\n      jump\t// out\n        /* \"#utility.yul\":1811:2005   */\n    tag_26:\n        /* \"#utility.yul\":1851:1855   */\n      0x00\n        /* \"#utility.yul\":1871:1891   */\n      tag_60\n        /* \"#utility.yul\":1889:1890   */\n      dup3\n        /* \"#utility.yul\":1871:1891   */\n      tag_31\n      jump\t// in\n    tag_60:\n        /* \"#utility.yul\":1866:1891   */\n      swap2\n      pop\n        /* \"#utility.yul\":1905:1925   */\n      tag_61\n        /* \"#utility.yul\":1923:1924   */\n      dup4\n        /* \"#utility.yul\":1905:1925   */\n      tag_31\n      jump\t// in\n    tag_61:\n        /* \"#utility.yul\":1900:1925   */\n      swap3\n      pop\n        /* \"#utility.yul\":1949:1950   */\n      dup3\n        /* \"#utility.yul\":1946:1947   */\n      dup3\n        /* \"#utility.yul\":1942:1951   */\n      sub\n        /* \"#utility.yul\":1934:1951   */\n      swap1\n      pop\n        /* \"#utility.yul\":1973:1974   */\n      dup2\n        /* \"#utility.yul\":1967:1971   */\n      dup2\n        /* \"#utility.yul\":1964:1975   */\n      gt\n        /* \"#utility.yul\":1961:1998   */\n      iszero\n      tag_62\n      jumpi\n        /* \"#utility.yul\":1978:1996   */\n      tag_63\n      tag_35\n      jump\t// in\n    tag_63:\n        /* \"#utility.yul\":1961:1998   */\n    tag_62:\n        /* \"#utility.yul\":1811:2005   */\n      swap3\n      swap2\n      pop\n      pop\n      jump\t// out\n        /* \"#utility.yul\":2011:2421   */\n    tag_28:\n        /* \"#utility.yul\":2051:2058   */\n      0x00\n        /* \"#utility.yul\":2074:2094   */\n      tag_65\n        /* \"#utility.yul\":2092:2093   */\n      dup3\n        /* \"#utility.yul\":2074:2094   */\n      tag_31\n      jump\t// in\n    tag_65:\n        /* \"#utility.yul\":2069:2094   */\n      swap2\n      pop\n        /* \"#utility.yul\":2108:2128   */\n      tag_66\n        /* \"#utility.yul\":2126:2127   */\n      dup4\n        /* \"#utility.yul\":2108:2128   */\n      tag_31\n      jump\t// in\n    tag_66:\n        /* \"#utility.yul\":2103:2128   */\n      swap3\n      pop\n        /* \"#utility.yul\":2163:2164   */\n      dup3\n        /* \"#utility.yul\":2160:2161   */\n      dup3\n        /* \"#utility.yul\":2156:2165   */\n      mul\n        /* \"#utility.yul\":2185:2215   */\n      tag_67\n        /* \"#utility.yul\":2203:2214   */\n      dup2\n        /* \"#utility.yul\":2185:2215   */\n      tag_31\n      jump\t// in\n    tag_67:\n        /* \"#utility.yul\":2174:2215   */\n      swap2\n      pop\n        /* \"#utility.yul\":2364:2365   */\n      dup3\n        /* \"#utility.yul\":2355:2362   */\n      dup3\n        /* \"#utility.yul\":2351:2366   */\n      div\n        /* \"#utility.yul\":2348:2349   */\n      dup5\n        /* \"#utility.yul\":2345:2367   */\n      eq\n        /* \"#utility.yul\":2325:2326   */\n      dup4\n        /* \"#utility.yul\":2318:2327   */\n      iszero\n        /* \"#utility.yul\":2298:2381   */\n      or\n        /* \"#utility.yul\":2275:2414   */\n      tag_68\n      jumpi\n        /* \"#utility.yul\":2394:2412   */\n      tag_69\n      tag_35\n      jump\t// in\n    tag_69:\n        /* \"#utility.yul\":2275:2414   */\n    tag_68:\n        /* \"#utility.yul\":2059:2421   */\n      pop\n        /* \"#utility.yul\":2011:2421   */\n      swap3\n      swap2\n      pop\n      pop\n      jump\t// out\n        /* \"#utility.yul\":2427:2607   */\n    tag_36:\n        /* \"#utility.yul\":2475:2552   */\n      0x4e487b7100000000000000000000000000000000000000000000000000000000\n        /* \"#utility.yul\":2472:2473   */\n      0x00\n        /* \"#utility.yul\":2465:2553   */\n      mstore\n        /* \"#utility.yul\":2572:2576   */\n      0x12\n        /* \"#utility.yul\":2569:2570   */\n      0x04\n        /* \"#utility.yul\":2562:2577   */\n      mstore\n        /* \"#utility.yul\":2596:2600   */\n      0x24\n        /* \"#utility.yul\":2593:2594   */\n      0x00\n        /* \"#utility.yul\":2586:2601   */\n      revert\n        /* \"#utility.yul\":2613:2798   */\n    tag_30:\n        /* \"#utility.yul\":2653:2654   */\n      0x00\n        /* \"#utility.yul\":2670:2690   */\n      tag_72\n        /* \"#utility.yul\":2688:2689   */\n      dup3\n        /* \"#utility.yul\":2670:2690   */\n      tag_31\n      jump\t// in\n    tag_72:\n        /* \"#utility.yul\":2665:2690   */\n      swap2\n      pop\n        /* \"#utility.yul\":2704:2724   */\n      tag_73\n        /* \"#utility.yul\":2722:2723   */\n      dup4\n        /* \"#utility.yul\":2704:2724   */\n      tag_31\n      jump\t// in\n    tag_73:\n        /* \"#utility.yul\":2699:2724   */\n      swap3\n      pop\n        /* \"#utility.yul\":2743:2744   */\n      dup3\n        /* \"#utility.yul\":2733:2768   */\n      tag_74\n      jumpi\n        /* \"#utility.yul\":2748:2766   */\n      tag_75\n      tag_36\n      jump\t// in\n    tag_75:\n        /* \"#utility.yul\":2733:2768   */\n    tag_74:\n        /* \"#utility.yul\":2790:2791   */\n      dup3\n        /* \"#utility.yul\":2787:2788   */\n      dup3\n        /* \"#utility.yul\":2783:2792   */\n      div\n        /* \"#utility.yul\":2778:2792   */\n      swap1\n      pop\n        /* \"#utility.yul\":2613:2798   */\n      swap3\n      swap2\n      pop\n      pop\n      jump\t// out\n\n    auxdata: 0xa264697066735822122031670e9661e655fa03436722f4feb1aad6fd881bb89f5ef50d51186279ca34ab64736f6c634300081e0033\n}\n",
				"bytecode": {
					"linkReferences": {},
					"object": "6080604052600a5f55600180557fffffffffffffffffffffffffffffffffffffffffffffffffffffffffffffffff600255348015603a575f5ffd5b50610334806100485f395ff3fe608060405234801561000f575f5ffd5b506004361061004a575f3560e01c80630dbe671f1461004e5780634df7e3d01461006c578063980a67fd1461008a578063c3da42b8146100ab575b5f5ffd5b6100566100c9565b6040516100639190610140565b60405180910390f35b6100746100ce565b6040516100819190610140565b60405180910390f35b6100926100d4565b6040516100a29493929190610159565b60405180910390f35b6100b3610122565b6040516100c091906101b4565b60405180910390f35b5f5481565b60015481565b5f5f5f5f6001545f546100e791906101fa565b93506001545f546100f8919061022d565b92506001545f546101099190610260565b91506001545f5461011a91906102ce565b905090919293565b60025481565b5f819050919050565b61013a81610128565b82525050565b5f6020820190506101535f830184610131565b92915050565b5f60808201905061016c5f830187610131565b6101796020830186610131565b6101866040830185610131565b6101936060830184610131565b95945050505050565b5f819050919050565b6101ae8161019c565b82525050565b5f6020820190506101c75f8301846101a5565b92915050565b7f4e487b71000000000000000000000000000000000000000000000000000000005f52601160045260245ffd5b5f61020482610128565b915061020f83610128565b9250828201905080821115610227576102266101cd565b5b92915050565b5f61023782610128565b915061024283610128565b925082820390508181111561025a576102596101cd565b5b92915050565b5f61026a82610128565b915061027583610128565b925082820261028381610128565b9150828204841483151761029a576102996101cd565b5b5092915050565b7f4e487b71000000000000000000000000000000000000000000000000000000005f52601260045260245ffd5b5f6102d882610128565b91506102e383610128565b9250826102f3576102f26102a1565b5b82820490509291505056fea264697066735822122031670e9661e655fa03436722f4feb1aad6fd881bb89f5ef50d51186279ca34ab64736f6c634300081e0033",
					"opcodes": "PUSH1 0x80 PUSH1 0x40 MSTORE PUSH1 0xA PUSH0 SSTORE PUSH1 0x1 DUP1 SSTORE PUSH32 0xFFFFFFFFFFFFFFFFFFFFFFFFFFFFFFFFFFFFFFFFFFFFFFFFFFFFFFFFFFFFFFFF PUSH1 0x2 SSTORE CALLVALUE DUP1 ISZERO PUSH1 0x3A JUMPI PUSH0 PUSH0 REVERT JUMPDEST POP PUSH2 0x334 DUP1 PUSH2 0x48 PUSH0 CODECOPY PUSH0 RETURN INVALID PUSH1 0x80 PUSH1 0x40 MSTORE CALLVALUE DUP1 ISZERO PUSH2 0xF JUMPI PUSH0 PUSH0 REVERT JUMPDEST POP PUSH1 0x4 CALLDATASIZE LT PUSH2 0x4A JUMPI PUSH0 CALLDATALOAD PUSH1 0xE0 SHR DUP1 PUSH4 0xDBE671F EQ PUSH2 0x4E JUMPI DUP1 PUSH4 0x4DF7E3D0 EQ PUSH2 0x6C JUMPI DUP1 PUSH4 0x980A67FD EQ PUSH2 0x8A JUMPI DUP1 PUSH4 0xC3DA42B8 EQ PUSH2 0xAB JUMPI JUMPDEST PUSH0 PUSH0 REVERT JUMPDEST PUSH2 0x56 PUSH2 0xC9 JUMP JUMPDEST PUSH1 0x40 MLOAD PUSH2 0x63 SWAP2 SWAP1 PUSH2 0x140 JUMP JUMPDEST PUSH1 0x40 MLOAD DUP1 SWAP2 SUB SWAP1 RETURN JUMPDEST PUSH2 0x74 PUSH2 0xCE JUMP JUMPDEST PUSH1 0x40 MLOAD PUSH2 0x81 SWAP2 SWAP1 PUSH2 0x140 JUMP JUMPDEST PUSH1 0x40 MLOAD DUP1 SWAP2 SUB SWAP1 RETURN JUMPDEST PUSH2 0x92 PUSH2 0xD4 JUMP JUMPDEST PUSH1 0x40 MLOAD PUSH2 0xA2 SWAP5 SWAP4 SWAP3 SWAP2 SWAP1 PUSH2 0x159 JUMP JUMPDEST PUSH1 0x40 MLOAD DUP1 SWAP2 SUB SWAP1 RETURN JUMPDEST PUSH2 0xB3 PUSH2 0x122 JUMP JUMPDEST PUSH1 0x40 MLOAD PUSH2 0xC0 SWAP2 SWAP1 PUSH2 0x1B4 JUMP JUMPDEST PUSH1 0x40 MLOAD DUP1 SWAP2 SUB SWAP1 RETURN JUMPDEST PUSH0 SLOAD DUP2 JUMP JUMPDEST PUSH1 0x1 SLOAD DUP2 JUMP JUMPDEST PUSH0 PUSH0 PUSH0 PUSH0 PUSH1 0x1 SLOAD PUSH0 SLOAD PUSH2 0xE7 SWAP2 SWAP1 PUSH2 0x1FA JUMP JUMPDEST SWAP4 POP PUSH1 0x1 SLOAD PUSH0 SLOAD PUSH2 0xF8 SWAP2 SWAP1 PUSH2 0x22D JUMP JUMPDEST SWAP3 POP PUSH1 0x1 SLOAD PUSH0 SLOAD PUSH2 0x109 SWAP2 SWAP1 PUSH2 0x260 JUMP JUMPDEST SWAP2 POP PUSH1 0x1 SLOAD PUSH0 SLOAD PUSH2 0x11A SWAP2 SWAP1 PUSH2 0x2CE JUMP JUMPDEST SWAP1 POP SWAP1 SWAP2 SWAP3 SWAP4 JUMP JUMPDEST PUSH1 0x2 SLOAD DUP2 JUMP JUMPDEST PUSH0 DUP2 SWAP1 POP SWAP2 SWAP1 POP JUMP JUMPDEST PUSH2 0x13A DUP2 PUSH2 0x128 JUMP JUMPDEST DUP3 MSTORE POP POP JUMP JUMPDEST PUSH0 PUSH1 0x20 DUP3 ADD SWAP1 POP PUSH2 0x153 PUSH0 DUP4 ADD DUP5 PUSH2 0x131 JUMP JUMPDEST SWAP3 SWAP2 POP POP JUMP JUMPDEST PUSH0 PUSH1 0x80 DUP3 ADD SWAP1 POP PUSH2 0x16C PUSH0 DUP4 ADD DUP8 PUSH2 0x131 JUMP JUMPDEST PUSH2 0x179 PUSH1 0x20 DUP4 ADD DUP7 PUSH2 0x131 JUMP JUMPDEST PUSH2 0x186 PUSH1 0x40 DUP4 ADD DUP6 PUSH2 0x131 JUMP JUMPDEST PUSH2 0x193 PUSH1 0x60 DUP4 ADD DUP5 PUSH2 0x131 JUMP JUMPDEST SWAP6 SWAP5 POP POP POP POP POP JUMP JUMPDEST PUSH0 DUP2 SWAP1 POP SWAP2 SWAP1 POP JUMP JUMPDEST PUSH2 0x1AE DUP2 PUSH2 0x19C JUMP JUMPDEST DUP3 MSTORE POP POP JUMP JUMPDEST PUSH0 PUSH1 0x20 DUP3 ADD SWAP1 POP PUSH2 0x1C7 PUSH0 DUP4 ADD DUP5 PUSH2 0x1A5 JUMP JUMPDEST SWAP3 SWAP2 POP POP JUMP JUMPDEST PUSH32 0x4E487B7100000000000000000000000000000000000000000000000000000000 PUSH0 MSTORE PUSH1 0x11 PUSH1 0x4 MSTORE PUSH1 0x24 PUSH0 REVERT JUMPDEST PUSH0 PUSH2 0x204 DUP3 PUSH2 0x128 JUMP JUMPDEST SWAP2 POP PUSH2 0x20F DUP4 PUSH2 0x128 JUMP JUMPDEST SWAP3 POP DUP3 DUP3 ADD SWAP1 POP DUP1 DUP3 GT ISZERO PUSH2 0x227 JUMPI PUSH2 0x226 PUSH2 0x1CD JUMP JUMPDEST JUMPDEST SWAP3 SWAP2 POP POP JUMP JUMPDEST PUSH0 PUSH2 0x237 DUP3 PUSH2 0x128 JUMP JUMPDEST SWAP2 POP PUSH2 0x242 DUP4 PUSH2 0x128 JUMP JUMPDEST SWAP3 POP DUP3 DUP3 SUB SWAP1 POP DUP2 DUP2 GT ISZERO PUSH2 0x25A JUMPI PUSH2 0x259 PUSH2 0x1CD JUMP JUMPDEST JUMPDEST SWAP3 SWAP2 POP POP JUMP JUMPDEST PUSH0 PUSH2 0x26A DUP3 PUSH2 0x128 JUMP JUMPDEST SWAP2 POP PUSH2 0x275 DUP4 PUSH2 0x128 JUMP JUMPDEST SWAP3 POP DUP3 DUP3 MUL PUSH2 0x283 DUP2 PUSH2 0x128 JUMP JUMPDEST SWAP2 POP DUP3 DUP3 DIV DUP5 EQ DUP4 ISZERO OR PUSH2 0x29A JUMPI PUSH2 0x299 PUSH2 0x1CD JUMP JUMPDEST JUMPDEST POP SWAP3 SWAP2 POP POP JUMP JUMPDEST PUSH32 0x4E487B7100000000000000000000000000000000000000000000000000000000 PUSH0 MSTORE PUSH1 0x12 PUSH1 0x4 MSTORE PUSH1 0x24 PUSH0 REVERT JUMPDEST PUSH0 PUSH2 0x2D8 DUP3 PUSH2 0x128 JUMP JUMPDEST SWAP2 POP PUSH2 0x2E3 DUP4 PUSH2 0x128 JUMP JUMPDEST SWAP3 POP DUP3 PUSH2 0x2F3 JUMPI PUSH2 0x2F2 PUSH2 0x2A1 JUMP JUMPDEST JUMPDEST DUP3 DUP3 DIV SWAP1 POP SWAP3 SWAP2 POP POP JUMP INVALID LOG2 PUSH5 0x6970667358 0x22 SLT KECCAK256 BALANCE PUSH8 0xE9661E655FA0343 PUSH8 0x22F4FEB1AAD6FD88 SHL 0xB8 SWAP16 MCOPY CREATE2 0xD MLOAD XOR PUSH3 0x79CA34 0xAB PUSH5 0x736F6C6343 STOP ADDMOD 0x1E STOP CALLER "
				},
				"gasEstimates": {
					"creation": {
						"codeDepositCost": "164000",
						"executionCost": "66523",
						"totalCost": "230523"
					},
					"external": {
						"a()": "2402",
						"arithmetic()": "infinite",
						"b()": "2425",
						"c()": "2469"
					}
				},
				"methodIdentifiers": {
					"a()": "0dbe671f",
					"arithmetic()": "980a67fd",
					"b()": "4df7e3d0",
					"c()": "c3da42b8"
				}
			},
			"storageLayout": {
				"storage": [
					{
						"astId": 4,
						"contract": "contracts/basic/IntegerDataType.sol:IntegerDataType",
						"label": "a",
						"offset": 0,
						"slot": "0",
						"type": "t_uint256"
					},
					{
						"astId": 7,
						"contract": "contracts/basic/IntegerDataType.sol:IntegerDataType",
						"label": "b",
						"offset": 0,
						"slot": "1",
						"type": "t_uint256"
					},
					{
						"astId": 11,
						"contract": "contracts/basic/IntegerDataType.sol:IntegerDataType",
						"label": "c",
						"offset": 0,
						"slot": "2",
						"type": "t_int256"
					}
				],
				"types": {
					"t_int256": {
						"encoding": "inplace",
						"label": "int256",
						"numberOfBytes": "32"
					},
					"t_uint256": {
						"encoding": "inplace",
						"label": "uint256",
						"numberOfBytes": "32"
					}
				}
			},
			"userdoc": {
				"kind": "user",
				"methods": {},
				"version": 1
			}
		}
	}
}