{
	"contracts/testOverflow.sol": {
		"testOverflow": {
			"abi": [
				{
					"constant": true,
					"inputs": [],
					"name": "add1",
					"outputs": [
						{
							"name": "",
							"type": "uint8"
						}
					],
					"payable": false,
					"stateMutability": "view",
					"type": "function"
				},
				{
					"constant": true,
					"inputs": [],
					"name": "add2",
					"outputs": [
						{
							"name": "",
							"type": "uint8"
						}
					],
					"payable": false,
					"stateMutability": "view",
					"type": "function"
				}
			],
			"devdoc": {
				"methods": {}
			},
			"evm": {
				"assembly": "    /* \"contracts/testOverflow.sol\":60:361  contract testOverflow {\r... */\n  mstore(0x40, 0x80)\n  callvalue\n    /* \"--CODEGEN--\":8:17   */\n  dup1\n    /* \"--CODEGEN--\":5:7   */\n  iszero\n  tag_1\n  jumpi\n    /* \"--CODEGEN--\":30:31   */\n  0x0\n    /* \"--CODEGEN--\":27:28   */\n  dup1\n    /* \"--CODEGEN--\":20:32   */\n  revert\n    /* \"--CODEGEN--\":5:7   */\ntag_1:\n    /* \"contracts/testOverflow.sol\":60:361  contract testOverflow {\r... */\n  pop\n  dataSize(sub_0)\n  dup1\n  dataOffset(sub_0)\n  0x0\n  codecopy\n  0x0\n  return\nstop\n\nsub_0: assembly {\n        /* \"contracts/testOverflow.sol\":60:361  contract testOverflow {\r... */\n      mstore(0x40, 0x80)\n      jumpi(tag_1, lt(calldatasize, 0x4))\n      calldataload(0x0)\n      0x100000000000000000000000000000000000000000000000000000000\n      swap1\n      div\n      0xffffffff\n      and\n      dup1\n      0x35921a\n      eq\n      tag_2\n      jumpi\n      dup1\n      0x6c1f222f\n      eq\n      tag_3\n      jumpi\n    tag_1:\n      0x0\n      dup1\n      revert\n        /* \"contracts/testOverflow.sol\":89:208  function add1() public pure returns (uint8) {\r... */\n    tag_2:\n      callvalue\n        /* \"--CODEGEN--\":8:17   */\n      dup1\n        /* \"--CODEGEN--\":5:7   */\n      iszero\n      tag_4\n      jumpi\n        /* \"--CODEGEN--\":30:31   */\n      0x0\n        /* \"--CODEGEN--\":27:28   */\n      dup1\n        /* \"--CODEGEN--\":20:32   */\n      revert\n        /* \"--CODEGEN--\":5:7   */\n    tag_4:\n        /* \"contracts/testOverflow.sol\":89:208  function add1() public pure returns (uint8) {\r... */\n      pop\n      tag_5\n      jump(tag_6)\n    tag_5:\n      mload(0x40)\n      dup1\n      dup3\n      0xff\n      and\n      0xff\n      and\n      dup2\n      mstore\n      0x20\n      add\n      swap2\n      pop\n      pop\n      mload(0x40)\n      dup1\n      swap2\n      sub\n      swap1\n      return\n        /* \"contracts/testOverflow.sol\":216:358  function add2() public pure returns (uint8){\r... */\n    tag_3:\n      callvalue\n        /* \"--CODEGEN--\":8:17   */\n      dup1\n        /* \"--CODEGEN--\":5:7   */\n      iszero\n      tag_7\n      jumpi\n        /* \"--CODEGEN--\":30:31   */\n      0x0\n        /* \"--CODEGEN--\":27:28   */\n      dup1\n        /* \"--CODEGEN--\":20:32   */\n      revert\n        /* \"--CODEGEN--\":5:7   */\n    tag_7:\n        /* \"contracts/testOverflow.sol\":216:358  function add2() public pure returns (uint8){\r... */\n      pop\n      tag_8\n      jump(tag_9)\n    tag_8:\n      mload(0x40)\n      dup1\n      dup3\n      0xff\n      and\n      0xff\n      and\n      dup2\n      mstore\n      0x20\n      add\n      swap2\n      pop\n      pop\n      mload(0x40)\n      dup1\n      swap2\n      sub\n      swap1\n      return\n        /* \"contracts/testOverflow.sol\":89:208  function add1() public pure returns (uint8) {\r... */\n    tag_6:\n        /* \"contracts/testOverflow.sol\":126:131  uint8 */\n      0x0\n        /* \"contracts/testOverflow.sol\":144:151  uint8 x */\n      dup1\n        /* \"contracts/testOverflow.sol\":154:157  200 */\n      0xc8\n        /* \"contracts/testOverflow.sol\":144:157  uint8 x = 200 */\n      swap1\n      pop\n        /* \"contracts/testOverflow.sol\":168:175  uint8 y */\n      0x0\n        /* \"contracts/testOverflow.sol\":180:181  2 */\n      0x2\n        /* \"contracts/testOverflow.sol\":178:179  x */\n      dup3\n        /* \"contracts/testOverflow.sol\":178:181  x*2 */\n      mul\n        /* \"contracts/testOverflow.sol\":168:181  uint8 y = x*2 */\n      swap1\n      pop\n        /* \"contracts/testOverflow.sol\":199:200  y */\n      dup1\n        /* \"contracts/testOverflow.sol\":192:200  return y */\n      swap3\n      pop\n      pop\n      pop\n        /* \"contracts/testOverflow.sol\":89:208  function add1() public pure returns (uint8) {\r... */\n      swap1\n      jump\t// out\n        /* \"contracts/testOverflow.sol\":216:358  function add2() public pure returns (uint8){\r... */\n    tag_9:\n        /* \"contracts/testOverflow.sol\":253:258  uint8 */\n      0x0\n        /* \"contracts/testOverflow.sol\":270:277  uint8 i */\n      dup1\n        /* \"contracts/testOverflow.sol\":280:283  240 */\n      0xf0\n        /* \"contracts/testOverflow.sol\":270:283  uint8 i = 240 */\n      swap1\n      pop\n        /* \"contracts/testOverflow.sol\":294:301  uint8 j */\n      0x0\n        /* \"contracts/testOverflow.sol\":304:305  1 */\n      0x1\n        /* \"contracts/testOverflow.sol\":294:305  uint8 j = 1 */\n      swap1\n      pop\n        /* \"contracts/testOverflow.sol\":316:323  uint8 k */\n      0x0\n        /* \"contracts/testOverflow.sol\":330:331  j */\n      dup2\n        /* \"contracts/testOverflow.sol\":326:327  i */\n      dup4\n        /* \"contracts/testOverflow.sol\":326:331  i + j */\n      add\n        /* \"contracts/testOverflow.sol\":316:331  uint8 k = i + j */\n      swap1\n      pop\n        /* \"contracts/testOverflow.sol\":349:350  k */\n      dup1\n        /* \"contracts/testOverflow.sol\":342:350  return k */\n      swap4\n      pop\n      pop\n      pop\n      pop\n        /* \"contracts/testOverflow.sol\":216:358  function add2() public pure returns (uint8){\r... */\n      swap1\n      jump\t// out\n\n    auxdata: 0xa165627a7a72305820aca8ab6618a6cf334ebeaadc83964ec5d5c807d71c59a63d39f04041b4508de70029\n}\n",
				"bytecode": {
					"linkReferences": {},
					"object": "608060405234801561001057600080fd5b50610109806100206000396000f3fe6080604052600436106048576000357c0100000000000000000000000000000000000000000000000000000000900463ffffffff16806235921a14604d5780636c1f222f14607b575b600080fd5b348015605857600080fd5b50605f60a9565b604051808260ff1660ff16815260200191505060405180910390f35b348015608657600080fd5b50608d60c0565b604051808260ff1660ff16815260200191505060405180910390f35b60008060c890506000600282029050809250505090565b60008060f09050600060019050600081830190508093505050509056fea165627a7a72305820aca8ab6618a6cf334ebeaadc83964ec5d5c807d71c59a63d39f04041b4508de70029",
					"opcodes": "PUSH1 0x80 PUSH1 0x40 MSTORE CALLVALUE DUP1 ISZERO PUSH2 0x10 JUMPI PUSH1 0x0 DUP1 REVERT JUMPDEST POP PUSH2 0x109 DUP1 PUSH2 0x20 PUSH1 0x0 CODECOPY PUSH1 0x0 RETURN INVALID PUSH1 0x80 PUSH1 0x40 MSTORE PUSH1 0x4 CALLDATASIZE LT PUSH1 0x48 JUMPI PUSH1 0x0 CALLDATALOAD PUSH29 0x100000000000000000000000000000000000000000000000000000000 SWAP1 DIV PUSH4 0xFFFFFFFF AND DUP1 PUSH3 0x35921A EQ PUSH1 0x4D JUMPI DUP1 PUSH4 0x6C1F222F EQ PUSH1 0x7B JUMPI JUMPDEST PUSH1 0x0 DUP1 REVERT JUMPDEST CALLVALUE DUP1 ISZERO PUSH1 0x58 JUMPI PUSH1 0x0 DUP1 REVERT JUMPDEST POP PUSH1 0x5F PUSH1 0xA9 JUMP JUMPDEST PUSH1 0x40 MLOAD DUP1 DUP3 PUSH1 0xFF AND PUSH1 0xFF AND DUP2 MSTORE PUSH1 0x20 ADD SWAP2 POP POP PUSH1 0x40 MLOAD DUP1 SWAP2 SUB SWAP1 RETURN JUMPDEST CALLVALUE DUP1 ISZERO PUSH1 0x86 JUMPI PUSH1 0x0 DUP1 REVERT JUMPDEST POP PUSH1 0x8D PUSH1 0xC0 JUMP JUMPDEST PUSH1 0x40 MLOAD DUP1 DUP3 PUSH1 0xFF AND PUSH1 0xFF AND DUP2 MSTORE PUSH1 0x20 ADD SWAP2 POP POP PUSH1 0x40 MLOAD DUP1 SWAP2 SUB SWAP1 RETURN JUMPDEST PUSH1 0x0 DUP1 PUSH1 0xC8 SWAP1 POP PUSH1 0x0 PUSH1 0x2 DUP3 MUL SWAP1 POP DUP1 SWAP3 POP POP POP SWAP1 JUMP JUMPDEST PUSH1 0x0 DUP1 PUSH1 0xF0 SWAP1 POP PUSH1 0x0 PUSH1 0x1 SWAP1 POP PUSH1 0x0 DUP2 DUP4 ADD SWAP1 POP DUP1 SWAP4 POP POP POP POP SWAP1 JUMP INVALID LOG1 PUSH6 0x627A7A723058 KECCAK256 0xac 0xa8 0xab PUSH7 0x18A6CF334EBEAA 0xdc DUP4 SWAP7 0x4e 0xc5 0xd5 0xc8 SMOD 0xd7 SHR MSIZE 0xa6 RETURNDATASIZE CODECOPY CREATE BLOCKHASH COINBASE 0xb4 POP DUP14 0xe7 STOP 0x29 "
				},
				"gasEstimates": {
					"creation": {
						"codeDepositCost": "53000",
						"executionCost": "105",
						"totalCost": "53105"
					},
					"external": {
						"add1()": "248",
						"add2()": "281"
					}
				},
				"methodIdentifiers": {
					"add1()": "0035921a",
					"add2()": "6c1f222f"
				}
			},
			"userdoc": {
				"methods": {}
			}
		}
	}
}